{
	"data": {
		"bytecode": {
			"linkReferences": {},
			"object": "608060405234801561001057600080fd5b5061022a806100206000396000f3fe6080604052600436106100225760003560e01c8063960e80b71461007c57610077565b36610077573373ffffffffffffffffffffffffffffffffffffffff167f9dc2b6f4868866f1b3f65b1add08446f83684be953a11d005bf86d130a8a129b3460405161006d919061014c565b60405180910390a2005b600080fd5b610084610086565b005b3373ffffffffffffffffffffffffffffffffffffffff167f9dc2b6f4868866f1b3f65b1add08446f83684be953a11d005bf86d130a8a129b346040516100cc91906101c6565b60405180910390a2565b600082825260208201905092915050565b7f7265636569766500000000000000000000000000000000000000000000000000600082015250565b600061011d6007836100d6565b9150610128826100e7565b602082019050919050565b6000819050919050565b61014681610133565b82525050565b6000604082019050818103600083015261016581610110565b9050610174602083018461013d565b92915050565b7f7472616e73000000000000000000000000000000000000000000000000000000600082015250565b60006101b06005836100d6565b91506101bb8261017a565b602082019050919050565b600060408201905081810360008301526101df816101a3565b90506101ee602083018461013d565b9291505056fea264697066735822122067712c0ab8027da1359acdaf7d0bd18bd4b06683b4a54ffd13f425da8e91218a64736f6c63430008130033",
			"opcodes": "PUSH1 0x80 PUSH1 0x40 MSTORE CALLVALUE DUP1 ISZERO PUSH2 0x10 JUMPI PUSH1 0x0 DUP1 REVERT JUMPDEST POP PUSH2 0x22A DUP1 PUSH2 0x20 PUSH1 0x0 CODECOPY PUSH1 0x0 RETURN INVALID PUSH1 0x80 PUSH1 0x40 MSTORE PUSH1 0x4 CALLDATASIZE LT PUSH2 0x22 JUMPI PUSH1 0x0 CALLDATALOAD PUSH1 0xE0 SHR DUP1 PUSH4 0x960E80B7 EQ PUSH2 0x7C JUMPI PUSH2 0x77 JUMP JUMPDEST CALLDATASIZE PUSH2 0x77 JUMPI CALLER PUSH20 0xFFFFFFFFFFFFFFFFFFFFFFFFFFFFFFFFFFFFFFFF AND PUSH32 0x9DC2B6F4868866F1B3F65B1ADD08446F83684BE953A11D005BF86D130A8A129B CALLVALUE PUSH1 0x40 MLOAD PUSH2 0x6D SWAP2 SWAP1 PUSH2 0x14C JUMP JUMPDEST PUSH1 0x40 MLOAD DUP1 SWAP2 SUB SWAP1 LOG2 STOP JUMPDEST PUSH1 0x0 DUP1 REVERT JUMPDEST PUSH2 0x84 PUSH2 0x86 JUMP JUMPDEST STOP JUMPDEST CALLER PUSH20 0xFFFFFFFFFFFFFFFFFFFFFFFFFFFFFFFFFFFFFFFF AND PUSH32 0x9DC2B6F4868866F1B3F65B1ADD08446F83684BE953A11D005BF86D130A8A129B CALLVALUE PUSH1 0x40 MLOAD PUSH2 0xCC SWAP2 SWAP1 PUSH2 0x1C6 JUMP JUMPDEST PUSH1 0x40 MLOAD DUP1 SWAP2 SUB SWAP1 LOG2 JUMP JUMPDEST PUSH1 0x0 DUP3 DUP3 MSTORE PUSH1 0x20 DUP3 ADD SWAP1 POP SWAP3 SWAP2 POP POP JUMP JUMPDEST PUSH32 0x7265636569766500000000000000000000000000000000000000000000000000 PUSH1 0x0 DUP3 ADD MSTORE POP JUMP JUMPDEST PUSH1 0x0 PUSH2 0x11D PUSH1 0x7 DUP4 PUSH2 0xD6 JUMP JUMPDEST SWAP2 POP PUSH2 0x128 DUP3 PUSH2 0xE7 JUMP JUMPDEST PUSH1 0x20 DUP3 ADD SWAP1 POP SWAP2 SWAP1 POP JUMP JUMPDEST PUSH1 0x0 DUP2 SWAP1 POP SWAP2 SWAP1 POP JUMP JUMPDEST PUSH2 0x146 DUP2 PUSH2 0x133 JUMP JUMPDEST DUP3 MSTORE POP POP JUMP JUMPDEST PUSH1 0x0 PUSH1 0x40 DUP3 ADD SWAP1 POP DUP2 DUP2 SUB PUSH1 0x0 DUP4 ADD MSTORE PUSH2 0x165 DUP2 PUSH2 0x110 JUMP JUMPDEST SWAP1 POP PUSH2 0x174 PUSH1 0x20 DUP4 ADD DUP5 PUSH2 0x13D JUMP JUMPDEST SWAP3 SWAP2 POP POP JUMP JUMPDEST PUSH32 0x7472616E73000000000000000000000000000000000000000000000000000000 PUSH1 0x0 DUP3 ADD MSTORE POP JUMP JUMPDEST PUSH1 0x0 PUSH2 0x1B0 PUSH1 0x5 DUP4 PUSH2 0xD6 JUMP JUMPDEST SWAP2 POP PUSH2 0x1BB DUP3 PUSH2 0x17A JUMP JUMPDEST PUSH1 0x20 DUP3 ADD SWAP1 POP SWAP2 SWAP1 POP JUMP JUMPDEST PUSH1 0x0 PUSH1 0x40 DUP3 ADD SWAP1 POP DUP2 DUP2 SUB PUSH1 0x0 DUP4 ADD MSTORE PUSH2 0x1DF DUP2 PUSH2 0x1A3 JUMP JUMPDEST SWAP1 POP PUSH2 0x1EE PUSH1 0x20 DUP4 ADD DUP5 PUSH2 0x13D JUMP JUMPDEST SWAP3 SWAP2 POP POP JUMP INVALID LOG2 PUSH5 0x6970667358 0x22 SLT KECCAK256 PUSH8 0x712C0AB8027DA135 SWAP11 0xCD 0xAF PUSH30 0xBD18BD4B06683B4A54FFD13F425DA8E91218A64736F6C63430008130033 "
		},
		"gasEstimates": {
			"creation": {
				"codeDepositCost": "110800",
				"executionCost": "159",
				"totalCost": "110959"
			},
			"external": {
				"trans()": "2641"
			}
		},
		"methodIdentifiers": {
			"trans()": "960e80b7"
		}
	},
	"abi": [
		{
			"anonymous": false,
			"inputs": [
				{
					"indexed": false,
					"internalType": "string",
					"name": "tag",
					"type": "string"
				},
				{
					"indexed": true,
					"internalType": "address",
					"name": "addr",
					"type": "address"
				},
				{
					"indexed": false,
					"internalType": "uint256",
					"name": "value",
					"type": "uint256"
				}
			],
			"name": "BalanceLog",
			"type": "event"
		},
		{
			"inputs": [],
			"name": "trans",
			"outputs": [],
			"stateMutability": "payable",
			"type": "function"
		},
		{
			"stateMutability": "payable",
			"type": "receive"
		}
	]
}